:020000042000DA
:1010000078D60020CD110020991400203D14002036
:10101000951400201913002065180020000000001E
:1010200000000000000000000000000091150020FA
:101030001D130020000000009B1400207D160020DE
:10104000E7110020E7110020E7110020E711002040
:10105000E7110020E7110020E7110020E711002030
:10106000E7110020E7110020E7110020E711002020
:10107000E7110020E7110020E7110020E711002010
:10108000E7110020E7110020E7110020E711002000
:10109000E7110020E7110020E7110020E7110020F0
:1010A000E7110020E7110020E7110020E7110020E0
:1010B000E7110020E7110020E7110020E7110020D0
:1010C000E7110020E7110020E7110020E7110020C0
:1010D000E7110020E7110020E7110020E7110020B0
:1010E000E7110020E7110020E7110020E7110020A0
:1010F000E7110020E7110020E7110020E711002090
:10110000E7110020E7110020E7110020E71100207F
:10111000E7110020E7110020E7110020E71100206F
:10112000E7110020E7110020E7110020E71100205F
:1011300000F002F800F03AF80AA090E8000C8244AF
:101140008344AAF10107DA4501D100F02FF8AFF28C
:10115000090EBAE80F0013F0010F18BFFB1A43F095
:10116000010318473C0800005C080000103A24BF47
:1011700078C878C1FAD8520724BF30C830C144BFFC
:1011800004680C607047000000230024002500263E
:10119000103A28BF78C1FBD8520728BF30C148BFDA
:1011A0000B6070471FB51FBD10B510BD00F06EF885
:1011B0001146FFF7F7FF00F0A7FB00F0A0F803B41B
:1011C000FFF7F2FF03BC00F04FFB00000948804727
:1011D00009480047FEE7FEE7FEE7FEE7FEE7FEE719
:1011E000FEE7FEE7FEE7FEE704480549054A064B31
:1011F00070470000951600203111002078D00020A3
:1012000078D6002078D2002078D2002070470000E5
:101210000FB4044910B503AA029800F009F810BCF5
:101220005DF814FB00D0002070477047704770478E
:10123000074B70B50D467B4400F011F80446284674
:1012400000F020F810B14FF0FF3070BD204670BDA7
:10125000B306000001694A1C02610878704700B5B6
:101260008FB0CDE901310021059105497944CDE9DF
:1012700003101146684600F02EF80FB000BD0000C4
:10128000E5FFFFFF007B00F080007047754600F02F
:101290003FF8AE4605006946534620F007008546F4
:1012A00018B020B5FFF7A0FFBDE820404FF00006C2
:1012B0004FF000074FF000084FF0000B21F007013E
:1012C000AC46ACE8C009ACE8C009ACE8C009ACE881
:1012D000C0098D4670472DE9F04106460024D6E945
:1012E0000170F5688046304603E04146B847641C0B
:1012F0003046A8470028F8D12046BDE8F08110B557
:101300000446AFF300802046BDE81040FFF757BF0A
:101310000048704718D0002000BFFEE770472DE955
:10132000F04102460025002600200023002400276B
:1013300091F803C00CF00F0591F803C00CF0100CED
:10134000BCF1000F03D091F802C04CEA050591F8FA
:1013500000C0BCF1000F31D0146800202BE04FF02A
:10136000010C0CFA00F3B1F800C00CEA03069E422F
:1013700020D183004FF00F0C0CFA03F7BC4305FAA1
:1013800003FC4CEA040491F803C0BCF1280F06D119
:101390004FF0010C0CFA00FCC2F814C00AE091F8FE
:1013A00003C0BCF1480F05D14FF0010C0CFA00FC52
:1013B000C2F810C0401C0828D1D31460B1F800C096
:1013C000BCF1FF0F34DD546800202EE000F1080C62
:1013D0004FF0010808FA0CF3B1F800C00CEA03065C
:1013E0009E4221D183004FF00F0C0CFA03F7BC434F
:1013F00005FA03FC4CEA040491F803C0BCF1280F81
:1014000005D100F1080C08FA0CF8C2F8148091F824
:1014100003C0BCF1480F07D100F1080C4FF00108E0
:1014200008FA0CF8C2F81080401C0828CED354608B
:10143000BDE8F081416170470161704700BFFEE780
:1014400008B50121082000F029F80121402000F012
:1014500025F82020ADF8000010208DF803000320AF
:101460008DF8020069460948FFF759FF2020ADF8C2
:10147000000069460648FFF752FF20210348FFF7A6
:10148000DBFF20210248FFF7D7FF08BD000C014019
:101490000018014000BFFEE77047704729B1064AB7
:1014A00092690243044B9A6104E0034A92698243C1
:1014B000014B9A61704700000010024030B50021D6
:1014C0000022002400232D4D6D6805F00C0121B190
:1014D000042905D0082923D105E0294D056022E023
:1014E000274D05601FE0254D6D6805F47012234DF2
:1014F0006D6805F48034022505EB92421CB9214D3C
:10150000554305600BE01D4D6D6805F400351DB1B8
:101510001C4D5543056002E0194D5543056002E03E
:10152000174D056000BF00BF144D6D6805F0F00158
:101530000909154D6B5C0568DD4045600F4D6D6810
:1015400005F4E061090A104D6B5C4568DD4085607B
:101550000A4D6D6805F46051C90A0B4D6B5C456816
:10156000DD40C560054D6D6805F44041890B074DB0
:101570006B5CC568B5FBF3F5056130BD001002403A
:1015800000127A0000093D0004D0002014D0002091
:10159000704710B500F002F810BD00000CB5002037
:1015A000019000903348006840F480303149086071
:1015B00000BF3048006800F4003000900198401CE3
:1015C0000190009818B90198B0F5A06FF1D12948A1
:1015D000006800F4003010B10120009001E000200C
:1015E00000900098012843D12348006840F0100083
:1015F000214908600846006820F00300086008469A
:10160000006840F0020008601A48406819494860C4
:101610000846406848600846406840F4806048607A
:101620000846406820F47C1048600846406840F452
:10163000E81048600846006840F08070086000BF0D
:101640000C48006800F000700028F9D00948406894
:1016500020F00300074948600846406840F0020057
:10166000486000BF0348406800F00C000828F9D12A
:101670000CBD000000100240002002407047002016
:101680004FF0E02108610846006920F0040008617D
:101690007047000010B51348006840F00100114980
:1016A000086008464068104908400E4948600846EE
:1016B00000680E4908400B4908600846006820F49D
:1016C000802008600846406820F4FE0048604FF41F
:1016D0001F008860FFF75DFF4FF00060044908605D
:1016E00010BD0000001002400000FFF8FFFFF6FEF2
:1016F00008ED00E010B586B00446012144F2040074
:10170000FFF7CCFE4FF40070ADF8140018208DF8F0
:10171000170003208DF8160005A91448FFF7FFFDF8
:101720004FF48060ADF8140004208DF817000320FA
:101730008DF8160005A90D48FFF7F1FD0194002072
:10174000ADF80800ADF80A00ADF80C00ADF81000D7
:101750000C20ADF80E0001A9054800F017F8012192
:10176000034800F007F806B010BD00000008014073
:101770000038014021B1828942F40052828104E0A4
:1017800082894DF6FF731A40828170472DE9F04738
:1017900086B005460E460024A24600BFA14600279B
:1017A000B08900B100BF2F462C8A4CF6FF70044070
:1017B000F08804432C82AC894EF6F3100440B088C4
:1017C00031890843718908430443AC81AC8A4FF6E0
:1017D000FF400440B0890443AC8201A8FFF76EFECD
:1017E0001F48874202D1DDF810A001E0DDF80CA00F
:1017F000A88900F4004040B10AEBCA0000EB0A10CF
:1018000031684900B0FBF1F807E00AEBCA0000EBD1
:101810000A1031688900B0FBF1F86420B8FBF0F0E1
:1018200004012009642101FB1089A88900F400400B
:1018300040B1322000EBC900B0FBF1F000F007002E
:10184000044308E0322000EB09106421B0FBF1F002
:1018500000F00F0004432C8106B0BDE8F0870000C3
:101860000038014000BFFEE700BF7047FF214FF086
:10187000E022916142F228314143516111460969E8
:1018800041F00101116100BF4FF0E021096901F44D
:1018900080310029F8D04FF0E021096921F00101E1
:1018A0004FF0E0221161704730B503460025B3F5D3
:1018B000E96F03DC1846FFF7D9FF15E004E0A3F554
:1018C000E96083B2681C85B2B3F5E96FF7DA0024EA
:1018D00005E04FF4E960FFF7C9FF601C84B2AC4239
:1018E000F7DB1846FFF7C2FF30BD000000BF054A16
:1018F000128802F04002002AF9D0C2B2014B1B1D2F
:101900001A807047003801401A481B490860FFF7E9
:10191000B6FE4FF4E130FFF7EDFEFFF791FD202119
:101920001648FFF789FD20211548FFF785FD642043
:10193000FFF7BAFF13A0FFF76BFC13A0FFF768FCDB
:1019400017E020210D48FFF775FD20210C48FFF717
:1019500071FD4FF44870FFF7A7FF20210748FFF7FC
:101960006BFD20210648FFF767FD4FF44870FFF735
:101970009BFFE6E70010002008ED00E0000C0140AE
:10198000001801400D0A00000D0A5352414DB3CC1E
:10199000D0F2B8FCD0C2B3C9B9A60D0A000000004D
:1019A000C019002000D00020180000006C11002099
:1019B000D819002018D000206006000088110020EF
:1019C0000000000000000000010203040102030403
:0819D0000607080902040608DD
:040000052000113195
:00000001FF
