Component: ARM Compiler 5.06 update 7 (build 960) Tool: armlink [4d3601]

==============================================================================

Section Cross References

    startup_stm32f10x_hd.o(STACK) refers (Special) to heapauxi.o(.text) for __use_two_region_memory
    startup_stm32f10x_hd.o(HEAP) refers (Special) to heapauxi.o(.text) for __use_two_region_memory
    startup_stm32f10x_hd.o(RESET) refers (Special) to heapauxi.o(.text) for __use_two_region_memory
    startup_stm32f10x_hd.o(RESET) refers to startup_stm32f10x_hd.o(STACK) for __initial_sp
    startup_stm32f10x_hd.o(RESET) refers to startup_stm32f10x_hd.o(.text) for Reset_Handler
    startup_stm32f10x_hd.o(RESET) refers to stm32f10x_it.o(i.NMI_Handler) for NMI_Handler
    startup_stm32f10x_hd.o(RESET) refers to stm32f10x_it.o(i.HardFault_Handler) for HardFault_Handler
    startup_stm32f10x_hd.o(RESET) refers to stm32f10x_it.o(i.MemManage_Handler) for MemManage_Handler
    startup_stm32f10x_hd.o(RESET) refers to stm32f10x_it.o(i.BusFault_Handler) for BusFault_Handler
    startup_stm32f10x_hd.o(RESET) refers to stm32f10x_it.o(i.UsageFault_Handler) for UsageFault_Handler
    startup_stm32f10x_hd.o(RESET) refers to stm32f10x_it.o(i.SVC_Handler) for SVC_Handler
    startup_stm32f10x_hd.o(RESET) refers to stm32f10x_it.o(i.DebugMon_Handler) for DebugMon_Handler
    startup_stm32f10x_hd.o(RESET) refers to stm32f10x_it.o(i.PendSV_Handler) for PendSV_Handler
    startup_stm32f10x_hd.o(RESET) refers to stm32f10x_it.o(i.SysTick_Handler) for SysTick_Handler
    startup_stm32f10x_hd.o(.text) refers (Special) to heapauxi.o(.text) for __use_two_region_memory
    startup_stm32f10x_hd.o(.text) refers to system_stm32f10x.o(i.SystemInit) for SystemInit
    startup_stm32f10x_hd.o(.text) refers to __main.o(!!!main) for __main
    startup_stm32f10x_hd.o(.text) refers to startup_stm32f10x_hd.o(HEAP) for Heap_Mem
==============================================================================

Removing Unused input sections from the image.

    Removing core_cm3.o(.emb_text), (32 bytes).
    Removing system_stm32f10x.o(i.SystemCoreClockUpdate), (164 bytes).
    Removing system_stm32f10x.o(.data), (20 bytes).
    Removing sys.o(.emb_text), (6 bytes).
    Removing sys.o(i.INTX_DISABLE), (4 bytes).
    Removing sys.o(i.INTX_ENABLE), (4 bytes).
    Removing sys.o(i.WFI_SET), (4 bytes).
    Removing delay.o(i.delay_us), (58 bytes).
    Removing misc.o(i.NVIC_Init), (112 bytes).
    Removing misc.o(i.NVIC_PriorityGroupConfig), (20 bytes).
    Removing misc.o(i.NVIC_SetVectorTable), (20 bytes).
    Removing misc.o(i.NVIC_SystemLPConfig), (32 bytes).
    Removing misc.o(i.SysTick_CLKSourceConfig), (40 bytes).
    Removing stm32f10x_rcc.o(i.RCC_ADCCLKConfig), (24 bytes).
    Removing stm32f10x_rcc.o(i.RCC_AHBPeriphClockCmd), (32 bytes).
    Removing stm32f10x_rcc.o(i.RCC_APB1PeriphClockCmd), (32 bytes).
    Removing stm32f10x_rcc.o(i.RCC_APB1PeriphResetCmd), (32 bytes).
    Removing stm32f10x_rcc.o(i.RCC_APB2PeriphResetCmd), (32 bytes).
==============================================================================

Image Symbol Table

    Local Symbols

    Symbol Name                              Value     Ov Type        Size  Object(Section)

    ../clib/angel/boardlib.s                 0x00000000   Number         0  boardinit1.o ABSOLUTE
    ../clib/angel/boardlib.s                 0x00000000   Number         0  boardinit2.o ABSOLUTE
    ../clib/angel/boardlib.s                 0x00000000   Number         0  boardshut.o ABSOLUTE
    ../clib/angel/boardlib.s                 0x00000000   Number         0  boardinit3.o ABSOLUTE
    ../clib/angel/handlers.s                 0x00000000   Number         0  __scatter_copy.o ABSOLUTE
    ../clib/angel/handlers.s                 0x00000000   Number         0  __scatter_zi.o ABSOLUTE
    ../clib/angel/kernel.s                   0x00000000   Number         0  __rtentry4.o ABSOLUTE
    ../clib/angel/kernel.s                   0x00000000   Number         0  __rtentry.o ABSOLUTE
    ../clib/angel/kernel.s                   0x00000000   Number         0  rtexit.o ABSOLUTE
    ../clib/angel/kernel.s                   0x00000000   Number         0  rtexit2.o ABSOLUTE
    ../clib/angel/kernel.s                   0x00000000   Number         0  __rtentry2.o ABSOLUTE
    ../clib/angel/rt.s                       0x00000000   Number         0  rt_raise.o ABSOLUTE
    ../clib/angel/scatter.s                  0x00000000   Number         0  __scatter.o ABSOLUTE
    ../clib/angel/startup.s                  0x00000000   Number         0  __main.o ABSOLUTE
    ../clib/angel/sys.s                      0x00000000   Number         0  indicate_semi.o ABSOLUTE
    ../clib/angel/sys.s                      0x00000000   Number         0  use_no_semi_2.o ABSOLUTE
    ../clib/angel/sys.s                      0x00000000   Number         0  sys_stackheap_outer.o ABSOLUTE
    ../clib/angel/sys.s                      0x00000000   Number         0  use_no_semi.o ABSOLUTE
    ../clib/angel/sys.s                      0x00000000   Number         0  libspace.o ABSOLUTE
    ../clib/angel/sysapp.c                   0x00000000   Number         0  sys_command.o ABSOLUTE
    ../clib/angel/sysapp.c                   0x00000000   Number         0  sys_wrch.o ABSOLUTE
    ../clib/armsys.c                         0x00000000   Number         0  no_argv.o ABSOLUTE
    ../clib/armsys.c                         0x00000000   Number         0  _get_argv_nomalloc.o ABSOLUTE
    ../clib/armsys.c                         0x00000000   Number         0  argv_veneer.o ABSOLUTE
    ../clib/armsys.c                         0x00000000   Number         0  argv_veneer.o ABSOLUTE
    ../clib/heapalloc.c                      0x00000000   Number         0  hrguard.o ABSOLUTE
    ../clib/heapaux.c                        0x00000000   Number         0  heapauxi.o ABSOLUTE
    ../clib/libinit.s                        0x00000000   Number         0  libinit.o ABSOLUTE
    ../clib/libinit.s                        0x00000000   Number         0  libshutdown.o ABSOLUTE
    ../clib/libinit.s                        0x00000000   Number         0  libshutdown2.o ABSOLUTE
    ../clib/libinit.s                        0x00000000   Number         0  libinit2.o ABSOLUTE
    ../clib/printf.c                         0x00000000   Number         0  _printf_char_file.o ABSOLUTE
    ../clib/printf.c                         0x00000000   Number         0  noretval__2printf.o ABSOLUTE
    ../clib/printf.c                         0x00000000   Number         0  _printf_char_common.o ABSOLUTE
    ../clib/printf.c                         0x00000000   Number         0  __2printf.o ABSOLUTE
    ../clib/printf.c                         0x00000000   Number         0  __printf_nopercent.o ABSOLUTE
    ../clib/signal.c                         0x00000000   Number         0  defsig_exit.o ABSOLUTE
    ../clib/signal.c                         0x00000000   Number         0  defsig_rtmem_outer.o ABSOLUTE
    ../clib/signal.c                         0x00000000   Number         0  defsig_rtmem_formal.o ABSOLUTE
    ../clib/signal.c                         0x00000000   Number         0  defsig_other.o ABSOLUTE
    ../clib/signal.c                         0x00000000   Number         0  defsig_segv_inner.o ABSOLUTE
    ../clib/signal.c                         0x00000000   Number         0  defsig_cppl_inner.o ABSOLUTE
    ../clib/signal.c                         0x00000000   Number         0  defsig_pvfn_inner.o ABSOLUTE
    ../clib/signal.c                         0x00000000   Number         0  defsig_stak_inner.o ABSOLUTE
    ../clib/signal.c                         0x00000000   Number         0  defsig_rtred_inner.o ABSOLUTE
    ../clib/signal.c                         0x00000000   Number         0  defsig_fpe_inner.o ABSOLUTE
    ../clib/signal.c                         0x00000000   Number         0  defsig_abrt_inner.o ABSOLUTE
    ../clib/signal.c                         0x00000000   Number         0  defsig_general.o ABSOLUTE
    ../clib/signal.c                         0x00000000   Number         0  __raise.o ABSOLUTE
    ../clib/signal.c                         0x00000000   Number         0  defsig_rtmem_inner.o ABSOLUTE
    ../clib/signal.s                         0x00000000   Number         0  defsig.o ABSOLUTE
    ../clib/stdio.c                          0x00000000   Number         0  ferror.o ABSOLUTE
    ../clib/stdio.c                          0x00000000   Number         0  ferror_locked.o ABSOLUTE
    ../clib/stdlib.c                         0x00000000   Number         0  exit.o ABSOLUTE
    ../fplib/fpinit.s                        0x00000000   Number         0  fpinit.o ABSOLUTE
    ..\..\Drivers\BSP\src\led.c              0x00000000   Number         0  led.o ABSOLUTE
    ..\..\Drivers\Libraries\CMSIS\core_cm3.c 0x00000000   Number         0  core_cm3.o ABSOLUTE
    ..\..\Drivers\Libraries\CMSIS\startup\startup_stm32f10x_hd.s 0x00000000   Number         0  startup_stm32f10x_hd.o ABSOLUTE
    ..\..\Drivers\Libraries\CMSIS\system_stm32f10x.c 0x00000000   Number         0  system_stm32f10x.o ABSOLUTE
    ..\..\Drivers\Libraries\FWlib\src\misc.c 0x00000000   Number         0  misc.o ABSOLUTE
    ..\..\Drivers\Libraries\FWlib\src\stm32f10x_dbgmcu.c 0x00000000   Number         0  stm32f10x_dbgmcu.o ABSOLUTE
    ..\..\Drivers\Libraries\FWlib\src\stm32f10x_flash.c 0x00000000   Number         0  stm32f10x_flash.o ABSOLUTE
    ..\..\Drivers\Libraries\FWlib\src\stm32f10x_gpio.c 0x00000000   Number         0  stm32f10x_gpio.o ABSOLUTE
    ..\..\Drivers\Libraries\FWlib\src\stm32f10x_rcc.c 0x00000000   Number         0  stm32f10x_rcc.o ABSOLUTE
    ..\..\Drivers\Libraries\FWlib\src\stm32f10x_usart.c 0x00000000   Number         0  stm32f10x_usart.o ABSOLUTE
    ..\..\Drivers\SYSTEM\src\delay.c         0x00000000   Number         0  delay.o ABSOLUTE
    ..\..\Drivers\SYSTEM\src\sys.c           0x00000000   Number         0  sys.o ABSOLUTE
    ..\..\Drivers\SYSTEM\src\usart.c         0x00000000   Number         0  usart.o ABSOLUTE
    ..\..\User\main.c                        0x00000000   Number         0  main.o ABSOLUTE
    ..\..\User\stm32f10x_it.c                0x00000000   Number         0  stm32f10x_it.o ABSOLUTE
    ..\\..\\Drivers\\Libraries\\CMSIS\\core_cm3.c 0x00000000   Number         0  core_cm3.o ABSOLUTE
    ..\\..\\Drivers\\SYSTEM\\src\\sys.c      0x00000000   Number         0  sys.o ABSOLUTE
    dc.s                                     0x00000000   Number         0  dc.o ABSOLUTE
    RESET                                    0x20001000   Section      304  startup_stm32f10x_hd.o(RESET)
    !!!main                                  0x20001130   Section        8  __main.o(!!!main)
    !!!scatter                               0x20001138   Section       52  __scatter.o(!!!scatter)
    !!handler_copy                           0x2000116c   Section       26  __scatter_copy.o(!!handler_copy)
    !!handler_zi                             0x20001188   Section       28  __scatter_zi.o(!!handler_zi)
    .ARM.Collect$$libinit$$00000000          0x200011a4   Section        2  libinit.o(.ARM.Collect$$libinit$$00000000)
    .ARM.Collect$$libinit$$00000002          0x200011a6   Section        0  libinit2.o(.ARM.Collect$$libinit$$00000002)
    .ARM.Collect$$libinit$$00000004          0x200011a6   Section        0  libinit2.o(.ARM.Collect$$libinit$$00000004)
    .ARM.Collect$$libinit$$0000000A          0x200011a6   Section        0  libinit2.o(.ARM.Collect$$libinit$$0000000A)
    .ARM.Collect$$libinit$$0000000C          0x200011a6   Section        0  libinit2.o(.ARM.Collect$$libinit$$0000000C)
    .ARM.Collect$$libinit$$0000000E          0x200011a6   Section        0  libinit2.o(.ARM.Collect$$libinit$$0000000E)
    .ARM.Collect$$libinit$$00000011          0x200011a6   Section        0  libinit2.o(.ARM.Collect$$libinit$$00000011)
    .ARM.Collect$$libinit$$00000013          0x200011a6   Section        0  libinit2.o(.ARM.Collect$$libinit$$00000013)
    .ARM.Collect$$libinit$$00000015          0x200011a6   Section        0  libinit2.o(.ARM.Collect$$libinit$$00000015)
    .ARM.Collect$$libinit$$00000017          0x200011a6   Section        0  libinit2.o(.ARM.Collect$$libinit$$00000017)
    .ARM.Collect$$libinit$$00000019          0x200011a6   Section        0  libinit2.o(.ARM.Collect$$libinit$$00000019)
    .ARM.Collect$$libinit$$0000001B          0x200011a6   Section        0  libinit2.o(.ARM.Collect$$libinit$$0000001B)
    .ARM.Collect$$libinit$$0000001D          0x200011a6   Section        0  libinit2.o(.ARM.Collect$$libinit$$0000001D)
    .ARM.Collect$$libinit$$0000001F          0x200011a6   Section        0  libinit2.o(.ARM.Collect$$libinit$$0000001F)
    .ARM.Collect$$libinit$$00000021          0x200011a6   Section        0  libinit2.o(.ARM.Collect$$libinit$$00000021)
    .ARM.Collect$$libinit$$00000023          0x200011a6   Section        0  libinit2.o(.ARM.Collect$$libinit$$00000023)
    .ARM.Collect$$libinit$$00000025          0x200011a6   Section        0  libinit2.o(.ARM.Collect$$libinit$$00000025)
    .ARM.Collect$$libinit$$0000002C          0x200011a6   Section        0  libinit2.o(.ARM.Collect$$libinit$$0000002C)
    .ARM.Collect$$libinit$$0000002E          0x200011a6   Section        0  libinit2.o(.ARM.Collect$$libinit$$0000002E)
    .ARM.Collect$$libinit$$00000030          0x200011a6   Section        0  libinit2.o(.ARM.Collect$$libinit$$00000030)
    .ARM.Collect$$libinit$$00000032          0x200011a6   Section        0  libinit2.o(.ARM.Collect$$libinit$$00000032)
    .ARM.Collect$$libinit$$00000033          0x200011a6   Section        2  libinit2.o(.ARM.Collect$$libinit$$00000033)
    .ARM.Collect$$libshutdown$$00000000      0x200011a8   Section        2  libshutdown.o(.ARM.Collect$$libshutdown$$00000000)
    .ARM.Collect$$libshutdown$$00000002      0x200011aa   Section        0  libshutdown2.o(.ARM.Collect$$libshutdown$$00000002)
    .ARM.Collect$$libshutdown$$00000004      0x200011aa   Section        0  libshutdown2.o(.ARM.Collect$$libshutdown$$00000004)
    .ARM.Collect$$libshutdown$$00000006      0x200011aa   Section        0  libshutdown2.o(.ARM.Collect$$libshutdown$$00000006)
    .ARM.Collect$$libshutdown$$00000009      0x200011aa   Section        0  libshutdown2.o(.ARM.Collect$$libshutdown$$00000009)
    .ARM.Collect$$libshutdown$$0000000C      0x200011aa   Section        0  libshutdown2.o(.ARM.Collect$$libshutdown$$0000000C)
    .ARM.Collect$$libshutdown$$0000000E      0x200011aa   Section        0  libshutdown2.o(.ARM.Collect$$libshutdown$$0000000E)
    .ARM.Collect$$libshutdown$$00000011      0x200011aa   Section        0  libshutdown2.o(.ARM.Collect$$libshutdown$$00000011)
    .ARM.Collect$$libshutdown$$00000012      0x200011aa   Section        2  libshutdown2.o(.ARM.Collect$$libshutdown$$00000012)
    .ARM.Collect$$rtentry$$00000000          0x200011ac   Section        0  __rtentry.o(.ARM.Collect$$rtentry$$00000000)
    .ARM.Collect$$rtentry$$00000002          0x200011ac   Section        0  __rtentry2.o(.ARM.Collect$$rtentry$$00000002)
    .ARM.Collect$$rtentry$$00000004          0x200011ac   Section        6  __rtentry4.o(.ARM.Collect$$rtentry$$00000004)
    .ARM.Collect$$rtentry$$00000009          0x200011b2   Section        0  __rtentry2.o(.ARM.Collect$$rtentry$$00000009)
    .ARM.Collect$$rtentry$$0000000A          0x200011b2   Section        4  __rtentry2.o(.ARM.Collect$$rtentry$$0000000A)
    .ARM.Collect$$rtentry$$0000000C          0x200011b6   Section        0  __rtentry2.o(.ARM.Collect$$rtentry$$0000000C)
    .ARM.Collect$$rtentry$$0000000D          0x200011b6   Section        8  __rtentry2.o(.ARM.Collect$$rtentry$$0000000D)
    .ARM.Collect$$rtexit$$00000000           0x200011be   Section        2  rtexit.o(.ARM.Collect$$rtexit$$00000000)
    .ARM.Collect$$rtexit$$00000002           0x200011c0   Section        0  rtexit2.o(.ARM.Collect$$rtexit$$00000002)
    .ARM.Collect$$rtexit$$00000003           0x200011c0   Section        4  rtexit2.o(.ARM.Collect$$rtexit$$00000003)
    .ARM.Collect$$rtexit$$00000004           0x200011c4   Section        6  rtexit2.o(.ARM.Collect$$rtexit$$00000004)
    .text                                    0x200011cc   Section       64  startup_stm32f10x_hd.o(.text)
    .text                                    0x2000120c   Section        2  use_no_semi_2.o(.text)
    .text                                    0x20001210   Section        0  noretval__2printf.o(.text)
    .text                                    0x20001228   Section        0  heapauxi.o(.text)
    .text                                    0x2000122e   Section        2  use_no_semi.o(.text)
    .text                                    0x20001230   Section        0  _printf_char_file.o(.text)
    .text                                    0x20001254   Section        0  _printf_char_common.o(.text)
    _printf_input_char                       0x20001255   Thumb Code    10  _printf_char_common.o(.text)
    .text                                    0x20001284   Section        0  ferror.o(.text)
    .text                                    0x2000128c   Section       74  sys_stackheap_outer.o(.text)
    .text                                    0x200012d6   Section        0  __printf_nopercent.o(.text)
    .text                                    0x200012fe   Section        0  exit.o(.text)
    .text                                    0x20001310   Section        8  libspace.o(.text)
    i.BusFault_Handler                       0x20001318   Section        0  stm32f10x_it.o(i.BusFault_Handler)
    i.DebugMon_Handler                       0x2000131c   Section        0  stm32f10x_it.o(i.DebugMon_Handler)
    i.GPIO_Init                              0x2000131e   Section        0  stm32f10x_gpio.o(i.GPIO_Init)
    i.GPIO_ResetBits                         0x20001434   Section        0  stm32f10x_gpio.o(i.GPIO_ResetBits)
    i.GPIO_SetBits                           0x20001438   Section        0  stm32f10x_gpio.o(i.GPIO_SetBits)
    i.HardFault_Handler                      0x2000143c   Section        0  stm32f10x_it.o(i.HardFault_Handler)
    i.LED_Init                               0x20001440   Section        0  led.o(i.LED_Init)
    i.MemManage_Handler                      0x20001494   Section        0  stm32f10x_it.o(i.MemManage_Handler)
    i.NMI_Handler                            0x20001498   Section        0  stm32f10x_it.o(i.NMI_Handler)
    i.PendSV_Handler                         0x2000149a   Section        0  stm32f10x_it.o(i.PendSV_Handler)
    i.RCC_APB2PeriphClockCmd                 0x2000149c   Section        0  stm32f10x_rcc.o(i.RCC_APB2PeriphClockCmd)
    i.RCC_GetClocksFreq                      0x200014bc   Section        0  stm32f10x_rcc.o(i.RCC_GetClocksFreq)
    i.SVC_Handler                            0x20001590   Section        0  stm32f10x_it.o(i.SVC_Handler)
    i.SetSysClock                            0x20001592   Section        0  system_stm32f10x.o(i.SetSysClock)
    SetSysClock                              0x20001593   Thumb Code     8  system_stm32f10x.o(i.SetSysClock)
    i.SetSysClockTo72                        0x2000159c   Section        0  system_stm32f10x.o(i.SetSysClockTo72)
    SetSysClockTo72                          0x2000159d   Thumb Code   214  system_stm32f10x.o(i.SetSysClockTo72)
    i.SysTick_Handler                        0x2000167c   Section        0  stm32f10x_it.o(i.SysTick_Handler)
    i.SysTick_Init                           0x2000167e   Section        0  delay.o(i.SysTick_Init)
    i.SystemInit                             0x20001694   Section        0  system_stm32f10x.o(i.SystemInit)
    i.USART1_Init                            0x200016f4   Section        0  usart.o(i.USART1_Init)
    i.USART_Cmd                              0x20001774   Section        0  stm32f10x_usart.o(i.USART_Cmd)
    i.USART_Init                             0x2000178c   Section        0  stm32f10x_usart.o(i.USART_Init)
    i.UsageFault_Handler                     0x20001864   Section        0  stm32f10x_it.o(i.UsageFault_Handler)
    i._sys_exit                              0x20001868   Section        0  usart.o(i._sys_exit)
    i.delay1_ms                              0x2000186c   Section        0  delay.o(i.delay1_ms)
    i.delay_ms                               0x200018a8   Section        0  delay.o(i.delay_ms)
    i.fputc                                  0x200018ec   Section        0  usart.o(i.fputc)
    i.main                                   0x20001908   Section        0  main.o(i.main)
    .data                                    0x2000d000   Section        4  usart.o(.data)
    .data                                    0x2000d004   Section       20  stm32f10x_rcc.o(.data)
    APBAHBPrescTable                         0x2000d004   Data          16  stm32f10x_rcc.o(.data)
    ADCPrescTable                            0x2000d014   Data           4  stm32f10x_rcc.o(.data)
    .bss                                     0x2000d018   Section       96  libspace.o(.bss)
    HEAP                                     0x2000d078   Section      512  startup_stm32f10x_hd.o(HEAP)
    Heap_Mem                                 0x2000d078   Data         512  startup_stm32f10x_hd.o(HEAP)
    STACK                                    0x2000d278   Section     1024  startup_stm32f10x_hd.o(STACK)
    Stack_Mem                                0x2000d278   Data        1024  startup_stm32f10x_hd.o(STACK)
    __initial_sp                             0x2000d678   Data           0  startup_stm32f10x_hd.o(STACK)

    Global Symbols

    Symbol Name                              Value     Ov Type        Size  Object(Section)

    BuildAttributes$$THM_ISAv4$P$D$K$B$S$PE$A:L22UL41UL21$X:L11$S22US41US21$IEEE1$IW$USESV6$~STKCKD$USESV7$~SHL$OSPACE$ROPI$EBA8$UX$STANDARDLIB$REQ8$PRES8$EABIv2 0x00000000   Number         0  anon$$obj.o ABSOLUTE
    __ARM_use_no_argv                        0x00000000   Number         0  main.o ABSOLUTE
    __ARM_exceptions_init                     - Undefined Weak Reference
    __alloca_initialize                       - Undefined Weak Reference
    __arm_fini_                               - Undefined Weak Reference
    __arm_preinit_                            - Undefined Weak Reference
    __cpp_initialize__aeabi_                  - Undefined Weak Reference
    __cxa_finalize                            - Undefined Weak Reference
    __rt_locale                               - Undefined Weak Reference
    __sigvec_lookup                           - Undefined Weak Reference
    _atexit_init                              - Undefined Weak Reference
    _call_atexit_fns                          - Undefined Weak Reference
    _clock_init                               - Undefined Weak Reference
    _fp_trap_init                             - Undefined Weak Reference
    _fp_trap_shutdown                         - Undefined Weak Reference
    _get_lc_collate                           - Undefined Weak Reference
    _get_lc_ctype                             - Undefined Weak Reference
    _get_lc_monetary                          - Undefined Weak Reference
    _get_lc_numeric                           - Undefined Weak Reference
    _get_lc_time                              - Undefined Weak Reference
    _getenv_init                              - Undefined Weak Reference
    _handle_redirection                       - Undefined Weak Reference
    _init_alloc                               - Undefined Weak Reference
    _init_user_alloc                          - Undefined Weak Reference
    _initio                                   - Undefined Weak Reference
    _mutex_acquire                            - Undefined Weak Reference
    _mutex_release                            - Undefined Weak Reference
    _rand_init                                - Undefined Weak Reference
    _signal_finish                            - Undefined Weak Reference
    _signal_init                              - Undefined Weak Reference
    _terminate_alloc                          - Undefined Weak Reference
    _terminate_user_alloc                     - Undefined Weak Reference
    _terminateio                              - Undefined Weak Reference
    __Vectors_Size                           0x00000130   Number         0  startup_stm32f10x_hd.o ABSOLUTE
    __Vectors                                0x20001000   Data           4  startup_stm32f10x_hd.o(RESET)
    __Vectors_End                            0x20001130   Data           0  startup_stm32f10x_hd.o(RESET)
    __main                                   0x20001131   Thumb Code     8  __main.o(!!!main)
    __scatterload                            0x20001139   Thumb Code     0  __scatter.o(!!!scatter)
    __scatterload_rt2                        0x20001139   Thumb Code    44  __scatter.o(!!!scatter)
    __scatterload_rt2_thumb_only             0x20001139   Thumb Code     0  __scatter.o(!!!scatter)
    __scatterload_null                       0x20001147   Thumb Code     0  __scatter.o(!!!scatter)
    __scatterload_copy                       0x2000116d   Thumb Code    26  __scatter_copy.o(!!handler_copy)
    __scatterload_zeroinit                   0x20001189   Thumb Code    28  __scatter_zi.o(!!handler_zi)
    __rt_lib_init                            0x200011a5   Thumb Code     0  libinit.o(.ARM.Collect$$libinit$$00000000)
    __rt_lib_init_alloca_1                   0x200011a7   Thumb Code     0  libinit2.o(.ARM.Collect$$libinit$$0000002E)
    __rt_lib_init_argv_1                     0x200011a7   Thumb Code     0  libinit2.o(.ARM.Collect$$libinit$$0000002C)
    __rt_lib_init_atexit_1                   0x200011a7   Thumb Code     0  libinit2.o(.ARM.Collect$$libinit$$0000001B)
    __rt_lib_init_clock_1                    0x200011a7   Thumb Code     0  libinit2.o(.ARM.Collect$$libinit$$00000021)
    __rt_lib_init_cpp_1                      0x200011a7   Thumb Code     0  libinit2.o(.ARM.Collect$$libinit$$00000032)
    __rt_lib_init_exceptions_1               0x200011a7   Thumb Code     0  libinit2.o(.ARM.Collect$$libinit$$00000030)
    __rt_lib_init_fp_1                       0x200011a7   Thumb Code     0  libinit2.o(.ARM.Collect$$libinit$$00000002)
    __rt_lib_init_fp_trap_1                  0x200011a7   Thumb Code     0  libinit2.o(.ARM.Collect$$libinit$$0000001F)
    __rt_lib_init_getenv_1                   0x200011a7   Thumb Code     0  libinit2.o(.ARM.Collect$$libinit$$00000023)
    __rt_lib_init_heap_1                     0x200011a7   Thumb Code     0  libinit2.o(.ARM.Collect$$libinit$$0000000A)
    __rt_lib_init_lc_collate_1               0x200011a7   Thumb Code     0  libinit2.o(.ARM.Collect$$libinit$$00000011)
    __rt_lib_init_lc_ctype_1                 0x200011a7   Thumb Code     0  libinit2.o(.ARM.Collect$$libinit$$00000013)
    __rt_lib_init_lc_monetary_1              0x200011a7   Thumb Code     0  libinit2.o(.ARM.Collect$$libinit$$00000015)
    __rt_lib_init_lc_numeric_1               0x200011a7   Thumb Code     0  libinit2.o(.ARM.Collect$$libinit$$00000017)
    __rt_lib_init_lc_time_1                  0x200011a7   Thumb Code     0  libinit2.o(.ARM.Collect$$libinit$$00000019)
    __rt_lib_init_preinit_1                  0x200011a7   Thumb Code     0  libinit2.o(.ARM.Collect$$libinit$$00000004)
    __rt_lib_init_rand_1                     0x200011a7   Thumb Code     0  libinit2.o(.ARM.Collect$$libinit$$0000000E)
    __rt_lib_init_return                     0x200011a7   Thumb Code     0  libinit2.o(.ARM.Collect$$libinit$$00000033)
    __rt_lib_init_signal_1                   0x200011a7   Thumb Code     0  libinit2.o(.ARM.Collect$$libinit$$0000001D)
    __rt_lib_init_stdio_1                    0x200011a7   Thumb Code     0  libinit2.o(.ARM.Collect$$libinit$$00000025)
    __rt_lib_init_user_alloc_1               0x200011a7   Thumb Code     0  libinit2.o(.ARM.Collect$$libinit$$0000000C)
    __rt_lib_shutdown                        0x200011a9   Thumb Code     0  libshutdown.o(.ARM.Collect$$libshutdown$$00000000)
    __rt_lib_shutdown_cpp_1                  0x200011ab   Thumb Code     0  libshutdown2.o(.ARM.Collect$$libshutdown$$00000004)
    __rt_lib_shutdown_fini_1                 0x200011ab   Thumb Code     0  libshutdown2.o(.ARM.Collect$$libshutdown$$00000002)
    __rt_lib_shutdown_fp_trap_1              0x200011ab   Thumb Code     0  libshutdown2.o(.ARM.Collect$$libshutdown$$00000009)
    __rt_lib_shutdown_heap_1                 0x200011ab   Thumb Code     0  libshutdown2.o(.ARM.Collect$$libshutdown$$00000011)
    __rt_lib_shutdown_return                 0x200011ab   Thumb Code     0  libshutdown2.o(.ARM.Collect$$libshutdown$$00000012)
    __rt_lib_shutdown_signal_1               0x200011ab   Thumb Code     0  libshutdown2.o(.ARM.Collect$$libshutdown$$0000000C)
    __rt_lib_shutdown_stdio_1                0x200011ab   Thumb Code     0  libshutdown2.o(.ARM.Collect$$libshutdown$$00000006)
    __rt_lib_shutdown_user_alloc_1           0x200011ab   Thumb Code     0  libshutdown2.o(.ARM.Collect$$libshutdown$$0000000E)
    __rt_entry                               0x200011ad   Thumb Code     0  __rtentry.o(.ARM.Collect$$rtentry$$00000000)
    __rt_entry_presh_1                       0x200011ad   Thumb Code     0  __rtentry2.o(.ARM.Collect$$rtentry$$00000002)
    __rt_entry_sh                            0x200011ad   Thumb Code     0  __rtentry4.o(.ARM.Collect$$rtentry$$00000004)
    __rt_entry_li                            0x200011b3   Thumb Code     0  __rtentry2.o(.ARM.Collect$$rtentry$$0000000A)
    __rt_entry_postsh_1                      0x200011b3   Thumb Code     0  __rtentry2.o(.ARM.Collect$$rtentry$$00000009)
    __rt_entry_main                          0x200011b7   Thumb Code     0  __rtentry2.o(.ARM.Collect$$rtentry$$0000000D)
    __rt_entry_postli_1                      0x200011b7   Thumb Code     0  __rtentry2.o(.ARM.Collect$$rtentry$$0000000C)
    __rt_exit                                0x200011bf   Thumb Code     0  rtexit.o(.ARM.Collect$$rtexit$$00000000)
    __rt_exit_ls                             0x200011c1   Thumb Code     0  rtexit2.o(.ARM.Collect$$rtexit$$00000003)
    __rt_exit_prels_1                        0x200011c1   Thumb Code     0  rtexit2.o(.ARM.Collect$$rtexit$$00000002)
    __rt_exit_exit                           0x200011c5   Thumb Code     0  rtexit2.o(.ARM.Collect$$rtexit$$00000004)
    Reset_Handler                            0x200011cd   Thumb Code     8  startup_stm32f10x_hd.o(.text)
    ADC1_2_IRQHandler                        0x200011e7   Thumb Code     0  startup_stm32f10x_hd.o(.text)
    ADC3_IRQHandler                          0x200011e7   Thumb Code     0  startup_stm32f10x_hd.o(.text)
    CAN1_RX1_IRQHandler                      0x200011e7   Thumb Code     0  startup_stm32f10x_hd.o(.text)
    CAN1_SCE_IRQHandler                      0x200011e7   Thumb Code     0  startup_stm32f10x_hd.o(.text)
    DMA1_Channel1_IRQHandler                 0x200011e7   Thumb Code     0  startup_stm32f10x_hd.o(.text)
    DMA1_Channel2_IRQHandler                 0x200011e7   Thumb Code     0  startup_stm32f10x_hd.o(.text)
    DMA1_Channel3_IRQHandler                 0x200011e7   Thumb Code     0  startup_stm32f10x_hd.o(.text)
    DMA1_Channel4_IRQHandler                 0x200011e7   Thumb Code     0  startup_stm32f10x_hd.o(.text)
    DMA1_Channel5_IRQHandler                 0x200011e7   Thumb Code     0  startup_stm32f10x_hd.o(.text)
    DMA1_Channel6_IRQHandler                 0x200011e7   Thumb Code     0  startup_stm32f10x_hd.o(.text)
    DMA1_Channel7_IRQHandler                 0x200011e7   Thumb Code     0  startup_stm32f10x_hd.o(.text)
    DMA2_Channel1_IRQHandler                 0x200011e7   Thumb Code     0  startup_stm32f10x_hd.o(.text)
    DMA2_Channel2_IRQHandler                 0x200011e7   Thumb Code     0  startup_stm32f10x_hd.o(.text)
    DMA2_Channel3_IRQHandler                 0x200011e7   Thumb Code     0  startup_stm32f10x_hd.o(.text)
    DMA2_Channel4_5_IRQHandler               0x200011e7   Thumb Code     0  startup_stm32f10x_hd.o(.text)
    EXTI0_IRQHandler                         0x200011e7   Thumb Code     0  startup_stm32f10x_hd.o(.text)
    EXTI15_10_IRQHandler                     0x200011e7   Thumb Code     0  startup_stm32f10x_hd.o(.text)
    EXTI1_IRQHandler                         0x200011e7   Thumb Code     0  startup_stm32f10x_hd.o(.text)
    EXTI2_IRQHandler                         0x200011e7   Thumb Code     0  startup_stm32f10x_hd.o(.text)
    EXTI3_IRQHandler                         0x200011e7   Thumb Code     0  startup_stm32f10x_hd.o(.text)
    EXTI4_IRQHandler                         0x200011e7   Thumb Code     0  startup_stm32f10x_hd.o(.text)
    EXTI9_5_IRQHandler                       0x200011e7   Thumb Code     0  startup_stm32f10x_hd.o(.text)
    FLASH_IRQHandler                         0x200011e7   Thumb Code     0  startup_stm32f10x_hd.o(.text)
    FSMC_IRQHandler                          0x200011e7   Thumb Code     0  startup_stm32f10x_hd.o(.text)
    I2C1_ER_IRQHandler                       0x200011e7   Thumb Code     0  startup_stm32f10x_hd.o(.text)
    I2C1_EV_IRQHandler                       0x200011e7   Thumb Code     0  startup_stm32f10x_hd.o(.text)
    I2C2_ER_IRQHandler                       0x200011e7   Thumb Code     0  startup_stm32f10x_hd.o(.text)
    I2C2_EV_IRQHandler                       0x200011e7   Thumb Code     0  startup_stm32f10x_hd.o(.text)
    PVD_IRQHandler                           0x200011e7   Thumb Code     0  startup_stm32f10x_hd.o(.text)
    RCC_IRQHandler                           0x200011e7   Thumb Code     0  startup_stm32f10x_hd.o(.text)
    RTCAlarm_IRQHandler                      0x200011e7   Thumb Code     0  startup_stm32f10x_hd.o(.text)
    RTC_IRQHandler                           0x200011e7   Thumb Code     0  startup_stm32f10x_hd.o(.text)
    SDIO_IRQHandler                          0x200011e7   Thumb Code     0  startup_stm32f10x_hd.o(.text)
    SPI1_IRQHandler                          0x200011e7   Thumb Code     0  startup_stm32f10x_hd.o(.text)
    SPI2_IRQHandler                          0x200011e7   Thumb Code     0  startup_stm32f10x_hd.o(.text)
    SPI3_IRQHandler                          0x200011e7   Thumb Code     0  startup_stm32f10x_hd.o(.text)
    TAMPER_IRQHandler                        0x200011e7   Thumb Code     0  startup_stm32f10x_hd.o(.text)
    TIM1_BRK_IRQHandler                      0x200011e7   Thumb Code     0  startup_stm32f10x_hd.o(.text)
    TIM1_CC_IRQHandler                       0x200011e7   Thumb Code     0  startup_stm32f10x_hd.o(.text)
    TIM1_TRG_COM_IRQHandler                  0x200011e7   Thumb Code     0  startup_stm32f10x_hd.o(.text)
    TIM1_UP_IRQHandler                       0x200011e7   Thumb Code     0  startup_stm32f10x_hd.o(.text)
    TIM2_IRQHandler                          0x200011e7   Thumb Code     0  startup_stm32f10x_hd.o(.text)
    TIM3_IRQHandler                          0x200011e7   Thumb Code     0  startup_stm32f10x_hd.o(.text)
    TIM4_IRQHandler                          0x200011e7   Thumb Code     0  startup_stm32f10x_hd.o(.text)
    TIM5_IRQHandler                          0x200011e7   Thumb Code     0  startup_stm32f10x_hd.o(.text)
    TIM6_IRQHandler                          0x200011e7   Thumb Code     0  startup_stm32f10x_hd.o(.text)
    TIM7_IRQHandler                          0x200011e7   Thumb Code     0  startup_stm32f10x_hd.o(.text)
    TIM8_BRK_IRQHandler                      0x200011e7   Thumb Code     0  startup_stm32f10x_hd.o(.text)
    TIM8_CC_IRQHandler                       0x200011e7   Thumb Code     0  startup_stm32f10x_hd.o(.text)
    TIM8_TRG_COM_IRQHandler                  0x200011e7   Thumb Code     0  startup_stm32f10x_hd.o(.text)
    TIM8_UP_IRQHandler                       0x200011e7   Thumb Code     0  startup_stm32f10x_hd.o(.text)
    UART4_IRQHandler                         0x200011e7   Thumb Code     0  startup_stm32f10x_hd.o(.text)
    UART5_IRQHandler                         0x200011e7   Thumb Code     0  startup_stm32f10x_hd.o(.text)
    USART1_IRQHandler                        0x200011e7   Thumb Code     0  startup_stm32f10x_hd.o(.text)
    USART2_IRQHandler                        0x200011e7   Thumb Code     0  startup_stm32f10x_hd.o(.text)
    USART3_IRQHandler                        0x200011e7   Thumb Code     0  startup_stm32f10x_hd.o(.text)
    USBWakeUp_IRQHandler                     0x200011e7   Thumb Code     0  startup_stm32f10x_hd.o(.text)
    USB_HP_CAN1_TX_IRQHandler                0x200011e7   Thumb Code     0  startup_stm32f10x_hd.o(.text)
    USB_LP_CAN1_RX0_IRQHandler               0x200011e7   Thumb Code     0  startup_stm32f10x_hd.o(.text)
    WWDG_IRQHandler                          0x200011e7   Thumb Code     0  startup_stm32f10x_hd.o(.text)
    __user_initial_stackheap                 0x200011e9   Thumb Code     0  startup_stm32f10x_hd.o(.text)
    __use_no_semihosting                     0x2000120d   Thumb Code     2  use_no_semi_2.o(.text)
    __2printf                                0x20001211   Thumb Code    20  noretval__2printf.o(.text)
    __use_two_region_memory                  0x20001229   Thumb Code     2  heapauxi.o(.text)
    __rt_heap_escrow$2region                 0x2000122b   Thumb Code     2  heapauxi.o(.text)
    __rt_heap_expand$2region                 0x2000122d   Thumb Code     2  heapauxi.o(.text)
    __I$use$semihosting                      0x2000122f   Thumb Code     0  use_no_semi.o(.text)
    __use_no_semihosting_swi                 0x2000122f   Thumb Code     2  use_no_semi.o(.text)
    _printf_char_file                        0x20001231   Thumb Code    32  _printf_char_file.o(.text)
    _printf_char_common                      0x2000125f   Thumb Code    32  _printf_char_common.o(.text)
    ferror                                   0x20001285   Thumb Code     8  ferror.o(.text)
    __user_setup_stackheap                   0x2000128d   Thumb Code    74  sys_stackheap_outer.o(.text)
    __printf                                 0x200012d7   Thumb Code    40  __printf_nopercent.o(.text)
    exit                                     0x200012ff   Thumb Code    18  exit.o(.text)
    __user_libspace                          0x20001311   Thumb Code     8  libspace.o(.text)
    __user_perproc_libspace                  0x20001311   Thumb Code     0  libspace.o(.text)
    __user_perthread_libspace                0x20001311   Thumb Code     0  libspace.o(.text)
    BusFault_Handler                         0x20001319   Thumb Code     4  stm32f10x_it.o(i.BusFault_Handler)
    DebugMon_Handler                         0x2000131d   Thumb Code     2  stm32f10x_it.o(i.DebugMon_Handler)
    GPIO_Init                                0x2000131f   Thumb Code   278  stm32f10x_gpio.o(i.GPIO_Init)
    GPIO_ResetBits                           0x20001435   Thumb Code     4  stm32f10x_gpio.o(i.GPIO_ResetBits)
    GPIO_SetBits                             0x20001439   Thumb Code     4  stm32f10x_gpio.o(i.GPIO_SetBits)
    HardFault_Handler                        0x2000143d   Thumb Code     4  stm32f10x_it.o(i.HardFault_Handler)
    LED_Init                                 0x20001441   Thumb Code    76  led.o(i.LED_Init)
    MemManage_Handler                        0x20001495   Thumb Code     4  stm32f10x_it.o(i.MemManage_Handler)
    NMI_Handler                              0x20001499   Thumb Code     2  stm32f10x_it.o(i.NMI_Handler)
    PendSV_Handler                           0x2000149b   Thumb Code     2  stm32f10x_it.o(i.PendSV_Handler)
    RCC_APB2PeriphClockCmd                   0x2000149d   Thumb Code    26  stm32f10x_rcc.o(i.RCC_APB2PeriphClockCmd)
    RCC_GetClocksFreq                        0x200014bd   Thumb Code   192  stm32f10x_rcc.o(i.RCC_GetClocksFreq)
    SVC_Handler                              0x20001591   Thumb Code     2  stm32f10x_it.o(i.SVC_Handler)
    SysTick_Handler                          0x2000167d   Thumb Code     2  stm32f10x_it.o(i.SysTick_Handler)
    SysTick_Init                             0x2000167f   Thumb Code    20  delay.o(i.SysTick_Init)
    SystemInit                               0x20001695   Thumb Code    78  system_stm32f10x.o(i.SystemInit)
    USART1_Init                              0x200016f5   Thumb Code   118  usart.o(i.USART1_Init)
    USART_Cmd                                0x20001775   Thumb Code    24  stm32f10x_usart.o(i.USART_Cmd)
    USART_Init                               0x2000178d   Thumb Code   210  stm32f10x_usart.o(i.USART_Init)
    UsageFault_Handler                       0x20001865   Thumb Code     4  stm32f10x_it.o(i.UsageFault_Handler)
    _sys_exit                                0x20001869   Thumb Code     4  usart.o(i._sys_exit)
    delay1_ms                                0x2000186d   Thumb Code    60  delay.o(i.delay1_ms)
    delay_ms                                 0x200018a9   Thumb Code    66  delay.o(i.delay_ms)
    fputc                                    0x200018ed   Thumb Code    24  usart.o(i.fputc)
    main                                     0x20001909   Thumb Code   108  main.o(i.main)
    Region$$Table$$Base                      0x200019a0   Number         0  anon$$obj.o(Region$$Table)
    Region$$Table$$Limit                     0x200019c0   Number         0  anon$$obj.o(Region$$Table)
    __stdout                                 0x2000d000   Data           4  usart.o(.data)
    __libspace_start                         0x2000d018   Data          96  libspace.o(.bss)
    __temporary_stack_top$libspace           0x2000d078   Data           0  libspace.o(.bss)



==============================================================================

Memory Map of the image

  Image Entry point : 0x20001131

  Load Region LR_IROM1 (Base: 0x20001000, Size: 0x000009d8, Max: 0x0000c000, ABSOLUTE)

    Execution Region ER_IROM1 (Exec base: 0x20001000, Load base: 0x20001000, Size: 0x000009c0, Max: 0x0000c000, ABSOLUTE)

    Exec Addr    Load Addr    Size         Type   Attr      Idx    E Section Name        Object

    0x20001000   0x20001000   0x00000130   Data   RO            3    RESET               startup_stm32f10x_hd.o
    0x20001130   0x20001130   0x00000008   Code   RO         1252  * !!!main             c_w.l(__main.o)
    0x20001138   0x20001138   0x00000034   Code   RO         1419    !!!scatter          c_w.l(__scatter.o)
    0x2000116c   0x2000116c   0x0000001a   Code   RO         1421    !!handler_copy      c_w.l(__scatter_copy.o)
    0x20001186   0x20001186   0x00000002   PAD
    0x20001188   0x20001188   0x0000001c   Code   RO         1423    !!handler_zi        c_w.l(__scatter_zi.o)
    0x200011a4   0x200011a4   0x00000002   Code   RO         1291    .ARM.Collect$$libinit$$00000000  c_w.l(libinit.o)
    0x200011a6   0x200011a6   0x00000000   Code   RO         1298    .ARM.Collect$$libinit$$00000002  c_w.l(libinit2.o)
    0x200011a6   0x200011a6   0x00000000   Code   RO         1300    .ARM.Collect$$libinit$$00000004  c_w.l(libinit2.o)
    0x200011a6   0x200011a6   0x00000000   Code   RO         1303    .ARM.Collect$$libinit$$0000000A  c_w.l(libinit2.o)
    0x200011a6   0x200011a6   0x00000000   Code   RO         1305    .ARM.Collect$$libinit$$0000000C  c_w.l(libinit2.o)
    0x200011a6   0x200011a6   0x00000000   Code   RO         1307    .ARM.Collect$$libinit$$0000000E  c_w.l(libinit2.o)
    0x200011a6   0x200011a6   0x00000000   Code   RO         1310    .ARM.Collect$$libinit$$00000011  c_w.l(libinit2.o)
    0x200011a6   0x200011a6   0x00000000   Code   RO         1312    .ARM.Collect$$libinit$$00000013  c_w.l(libinit2.o)
    0x200011a6   0x200011a6   0x00000000   Code   RO         1314    .ARM.Collect$$libinit$$00000015  c_w.l(libinit2.o)
    0x200011a6   0x200011a6   0x00000000   Code   RO         1316    .ARM.Collect$$libinit$$00000017  c_w.l(libinit2.o)
    0x200011a6   0x200011a6   0x00000000   Code   RO         1318    .ARM.Collect$$libinit$$00000019  c_w.l(libinit2.o)
    0x200011a6   0x200011a6   0x00000000   Code   RO         1320    .ARM.Collect$$libinit$$0000001B  c_w.l(libinit2.o)
    0x200011a6   0x200011a6   0x00000000   Code   RO         1322    .ARM.Collect$$libinit$$0000001D  c_w.l(libinit2.o)
    0x200011a6   0x200011a6   0x00000000   Code   RO         1324    .ARM.Collect$$libinit$$0000001F  c_w.l(libinit2.o)
    0x200011a6   0x200011a6   0x00000000   Code   RO         1326    .ARM.Collect$$libinit$$00000021  c_w.l(libinit2.o)
    0x200011a6   0x200011a6   0x00000000   Code   RO         1328    .ARM.Collect$$libinit$$00000023  c_w.l(libinit2.o)
    0x200011a6   0x200011a6   0x00000000   Code   RO         1330    .ARM.Collect$$libinit$$00000025  c_w.l(libinit2.o)
    0x200011a6   0x200011a6   0x00000000   Code   RO         1334    .ARM.Collect$$libinit$$0000002C  c_w.l(libinit2.o)
    0x200011a6   0x200011a6   0x00000000   Code   RO         1336    .ARM.Collect$$libinit$$0000002E  c_w.l(libinit2.o)
    0x200011a6   0x200011a6   0x00000000   Code   RO         1338    .ARM.Collect$$libinit$$00000030  c_w.l(libinit2.o)
    0x200011a6   0x200011a6   0x00000000   Code   RO         1340    .ARM.Collect$$libinit$$00000032  c_w.l(libinit2.o)
    0x200011a6   0x200011a6   0x00000002   Code   RO         1341    .ARM.Collect$$libinit$$00000033  c_w.l(libinit2.o)
    0x200011a8   0x200011a8   0x00000002   Code   RO         1359    .ARM.Collect$$libshutdown$$00000000  c_w.l(libshutdown.o)
    0x200011aa   0x200011aa   0x00000000   Code   RO         1369    .ARM.Collect$$libshutdown$$00000002  c_w.l(libshutdown2.o)
    0x200011aa   0x200011aa   0x00000000   Code   RO         1371    .ARM.Collect$$libshutdown$$00000004  c_w.l(libshutdown2.o)
    0x200011aa   0x200011aa   0x00000000   Code   RO         1373    .ARM.Collect$$libshutdown$$00000006  c_w.l(libshutdown2.o)
    0x200011aa   0x200011aa   0x00000000   Code   RO         1376    .ARM.Collect$$libshutdown$$00000009  c_w.l(libshutdown2.o)
    0x200011aa   0x200011aa   0x00000000   Code   RO         1379    .ARM.Collect$$libshutdown$$0000000C  c_w.l(libshutdown2.o)
    0x200011aa   0x200011aa   0x00000000   Code   RO         1381    .ARM.Collect$$libshutdown$$0000000E  c_w.l(libshutdown2.o)
    0x200011aa   0x200011aa   0x00000000   Code   RO         1384    .ARM.Collect$$libshutdown$$00000011  c_w.l(libshutdown2.o)
    0x200011aa   0x200011aa   0x00000002   Code   RO         1385    .ARM.Collect$$libshutdown$$00000012  c_w.l(libshutdown2.o)
    0x200011ac   0x200011ac   0x00000000   Code   RO         1256    .ARM.Collect$$rtentry$$00000000  c_w.l(__rtentry.o)
    0x200011ac   0x200011ac   0x00000000   Code   RO         1260    .ARM.Collect$$rtentry$$00000002  c_w.l(__rtentry2.o)
    0x200011ac   0x200011ac   0x00000006   Code   RO         1272    .ARM.Collect$$rtentry$$00000004  c_w.l(__rtentry4.o)
    0x200011b2   0x200011b2   0x00000000   Code   RO         1262    .ARM.Collect$$rtentry$$00000009  c_w.l(__rtentry2.o)
    0x200011b2   0x200011b2   0x00000004   Code   RO         1263    .ARM.Collect$$rtentry$$0000000A  c_w.l(__rtentry2.o)
    0x200011b6   0x200011b6   0x00000000   Code   RO         1265    .ARM.Collect$$rtentry$$0000000C  c_w.l(__rtentry2.o)
    0x200011b6   0x200011b6   0x00000008   Code   RO         1266    .ARM.Collect$$rtentry$$0000000D  c_w.l(__rtentry2.o)
    0x200011be   0x200011be   0x00000002   Code   RO         1295    .ARM.Collect$$rtexit$$00000000  c_w.l(rtexit.o)
    0x200011c0   0x200011c0   0x00000000   Code   RO         1343    .ARM.Collect$$rtexit$$00000002  c_w.l(rtexit2.o)
    0x200011c0   0x200011c0   0x00000004   Code   RO         1344    .ARM.Collect$$rtexit$$00000003  c_w.l(rtexit2.o)
    0x200011c4   0x200011c4   0x00000006   Code   RO         1345    .ARM.Collect$$rtexit$$00000004  c_w.l(rtexit2.o)
    0x200011ca   0x200011ca   0x00000002   PAD
    0x200011cc   0x200011cc   0x00000040   Code   RO            4    .text               startup_stm32f10x_hd.o
    0x2000120c   0x2000120c   0x00000002   Code   RO         1244    .text               c_w.l(use_no_semi_2.o)
    0x2000120e   0x2000120e   0x00000002   PAD
    0x20001210   0x20001210   0x00000018   Code   RO         1248    .text               c_w.l(noretval__2printf.o)
    0x20001228   0x20001228   0x00000006   Code   RO         1250    .text               c_w.l(heapauxi.o)
    0x2000122e   0x2000122e   0x00000002   Code   RO         1254    .text               c_w.l(use_no_semi.o)
    0x20001230   0x20001230   0x00000024   Code   RO         1257    .text               c_w.l(_printf_char_file.o)
    0x20001254   0x20001254   0x00000030   Code   RO         1274    .text               c_w.l(_printf_char_common.o)
    0x20001284   0x20001284   0x00000008   Code   RO         1276    .text               c_w.l(ferror.o)
    0x2000128c   0x2000128c   0x0000004a   Code   RO         1280    .text               c_w.l(sys_stackheap_outer.o)
    0x200012d6   0x200012d6   0x00000028   Code   RO         1282    .text               c_w.l(__printf_nopercent.o)
    0x200012fe   0x200012fe   0x00000012   Code   RO         1284    .text               c_w.l(exit.o)
    0x20001310   0x20001310   0x00000008   Code   RO         1292    .text               c_w.l(libspace.o)
    0x20001318   0x20001318   0x00000004   Code   RO          135    i.BusFault_Handler  stm32f10x_it.o
    0x2000131c   0x2000131c   0x00000002   Code   RO          136    i.DebugMon_Handler  stm32f10x_it.o
    0x2000131e   0x2000131e   0x00000116   Code   RO          741    i.GPIO_Init         stm32f10x_gpio.o
    0x20001434   0x20001434   0x00000004   Code   RO          748    i.GPIO_ResetBits    stm32f10x_gpio.o
    0x20001438   0x20001438   0x00000004   Code   RO          749    i.GPIO_SetBits      stm32f10x_gpio.o
    0x2000143c   0x2000143c   0x00000004   Code   RO          137    i.HardFault_Handler  stm32f10x_it.o
    0x20001440   0x20001440   0x00000054   Code   RO         1227    i.LED_Init          led.o
    0x20001494   0x20001494   0x00000004   Code   RO          138    i.MemManage_Handler  stm32f10x_it.o
    0x20001498   0x20001498   0x00000002   Code   RO          139    i.NMI_Handler       stm32f10x_it.o
    0x2000149a   0x2000149a   0x00000002   Code   RO          140    i.PendSV_Handler    stm32f10x_it.o
    0x2000149c   0x2000149c   0x00000020   Code   RO          539    i.RCC_APB2PeriphClockCmd  stm32f10x_rcc.o
    0x200014bc   0x200014bc   0x000000d4   Code   RO          547    i.RCC_GetClocksFreq  stm32f10x_rcc.o
    0x20001590   0x20001590   0x00000002   Code   RO          141    i.SVC_Handler       stm32f10x_it.o
    0x20001592   0x20001592   0x00000008   Code   RO          281    i.SetSysClock       system_stm32f10x.o
    0x2000159a   0x2000159a   0x00000002   PAD
    0x2000159c   0x2000159c   0x000000e0   Code   RO          282    i.SetSysClockTo72   system_stm32f10x.o
    0x2000167c   0x2000167c   0x00000002   Code   RO          142    i.SysTick_Handler   stm32f10x_it.o
    0x2000167e   0x2000167e   0x00000014   Code   RO          346    i.SysTick_Init      delay.o
    0x20001692   0x20001692   0x00000002   PAD
    0x20001694   0x20001694   0x00000060   Code   RO          284    i.SystemInit        system_stm32f10x.o
    0x200016f4   0x200016f4   0x00000080   Code   RO          379    i.USART1_Init       usart.o
    0x20001774   0x20001774   0x00000018   Code   RO          877    i.USART_Cmd         stm32f10x_usart.o
    0x2000178c   0x2000178c   0x000000d8   Code   RO          884    i.USART_Init        stm32f10x_usart.o
    0x20001864   0x20001864   0x00000004   Code   RO          143    i.UsageFault_Handler  stm32f10x_it.o
    0x20001868   0x20001868   0x00000004   Code   RO          380    i._sys_exit         usart.o
    0x2000186c   0x2000186c   0x0000003c   Code   RO          347    i.delay1_ms         delay.o
    0x200018a8   0x200018a8   0x00000042   Code   RO          348    i.delay_ms          delay.o
    0x200018ea   0x200018ea   0x00000002   PAD
    0x200018ec   0x200018ec   0x0000001c   Code   RO          381    i.fputc             usart.o
    0x20001908   0x20001908   0x00000098   Code   RO           24    i.main              main.o
    0x200019a0   0x200019a0   0x00000020   Data   RO         1417    Region$$Table       anon$$obj.o


    Execution Region RW_IRAM1 (Exec base: 0x2000d000, Load base: 0x200019c0, Size: 0x00000678, Max: 0x00003000, ABSOLUTE)

    Exec Addr    Load Addr    Size         Type   Attr      Idx    E Section Name        Object

    0x2000d000   0x200019c0   0x00000004   Data   RW          382    .data               usart.o
    0x2000d004   0x200019c4   0x00000014   Data   RW          567    .data               stm32f10x_rcc.o
    0x2000d018        -       0x00000060   Zero   RW         1293    .bss                c_w.l(libspace.o)
    0x2000d078        -       0x00000200   Zero   RW            2    HEAP                startup_stm32f10x_hd.o
    0x2000d278        -       0x00000400   Zero   RW            1    STACK               startup_stm32f10x_hd.o


==============================================================================

Image component sizes


      Code (inc. data)   RO Data    RW Data    ZI Data      Debug   Object Name

         0          0          0          0          0       4516   core_cm3.o
       146          0          0          0          0       1658   delay.o
        84          8          0          0          0        535   led.o
       152         44          0          0          0        515   main.o
        64         26        304          0       1536        888   startup_stm32f10x_hd.o
       286          0          0          0          0       3220   stm32f10x_gpio.o
        26          0          0          0          0     230646   stm32f10x_it.o
       244         26          0         20          0       4045   stm32f10x_rcc.o
       240          6          0          0          0       2989   stm32f10x_usart.o
       328         28          0          0          0       2157   system_stm32f10x.o
       160         14          0          4          0      18140   usart.o

    ----------------------------------------------------------------------
      1736        152        336         24       1536     269309   Object Totals
         0          0         32          0          0          0   (incl. Generated)
         6          0          0          0          0          0   (incl. Padding)

    ----------------------------------------------------------------------

      Code (inc. data)   RO Data    RW Data    ZI Data      Debug   Library Member Name

         8          0          0          0          0         68   __main.o
        40          0          0          0          0         84   __printf_nopercent.o
         0          0          0          0          0          0   __rtentry.o
        12          0          0          0          0          0   __rtentry2.o
         6          0          0          0          0          0   __rtentry4.o
        52          8          0          0          0          0   __scatter.o
        26          0          0          0          0          0   __scatter_copy.o
        28          0          0          0          0          0   __scatter_zi.o
        48          6          0          0          0         96   _printf_char_common.o
        36          4          0          0          0         80   _printf_char_file.o
        18          0          0          0          0         80   exit.o
         8          0          0          0          0         68   ferror.o
         6          0          0          0          0        152   heapauxi.o
         2          0          0          0          0          0   libinit.o
         2          0          0          0          0          0   libinit2.o
         2          0          0          0          0          0   libshutdown.o
         2          0          0          0          0          0   libshutdown2.o
         8          4          0          0         96         68   libspace.o
        24          4          0          0          0         84   noretval__2printf.o
         2          0          0          0          0          0   rtexit.o
        10          0          0          0          0          0   rtexit2.o
        74          0          0          0          0         80   sys_stackheap_outer.o
         2          0          0          0          0         68   use_no_semi.o
         2          0          0          0          0         68   use_no_semi_2.o

    ----------------------------------------------------------------------
       424         26          0          0         96        996   Library Totals
         6          0          0          0          0          0   (incl. Padding)

    ----------------------------------------------------------------------

      Code (inc. data)   RO Data    RW Data    ZI Data      Debug   Library Name

       418         26          0          0         96        996   c_w.l

    ----------------------------------------------------------------------
       424         26          0          0         96        996   Library Totals

    ----------------------------------------------------------------------

==============================================================================


      Code (inc. data)   RO Data    RW Data    ZI Data      Debug   

      2160        178        336         24       1632     268741   Grand Totals
      2160        178        336         24       1632     268741   ELF Image Totals
      2160        178        336         24          0          0   ROM Totals

==============================================================================

    Total RO  Size (Code + RO Data)                 2496 (   2.44kB)
    Total RW  Size (RW Data + ZI Data)              1656 (   1.62kB)
    Total ROM Size (Code + RO Data + RW Data)       2520 (   2.46kB)

==============================================================================

