:020000040800F2
:10000000800E0020DD010008BD080008DF060008A2
:10001000B9080008950400082D0F00080000000032
:100020000000000000000000000000006F0B00084E
:10003000990400080000000045090008590C000858
:10004000F7010008F7010008F7010008F7010008B0
:10005000F7010008F7010008F7010008F7010008A0
:10006000F7010008F7010008F7010008F701000890
:10007000F7010008F7010008F7010008F701000880
:10008000F7010008F7010008F7010008F701000870
:10009000F7010008F7010008F7010008F701000860
:1000A000F7010008F7010008F7010008F701000850
:1000B000F7010008F7010008F7010008F701000840
:1000C000F7010008F7010008F7010008F701000830
:1000D000F7010008D10C0008F7010008F70100083B
:1000E000F7010008F7010008F7010008F701000810
:1000F000F7010008F7010008F7010008F701000800
:10010000F7010008F7010008F7010008F7010008EF
:10011000F7010008F7010008F7010008F7010008DF
:10012000F7010008F7010008F7010008F7010008CF
:1001300000F002F800F03FF80AA090E8000C8244BA
:100140008344AAF10107DA4501D100F034F8AFF297
:10015000090EBAE80F0013F0010F18BFFB1A43F0A5
:1001600001031847D0100000F0100000103A24BF1F
:1001700078C878C1FAD8520724BF30C830C144BF0C
:1001800004680C607047000000230024002500264E
:10019000103A28BF78C1FBD8520728BF30C148BFEA
:1001A0000B607047642900F07B80002070471FB50A
:1001B0001FBD10B510BD00F03BF91146FFF7F7FF6A
:1001C00000F006FF00F059F903B4FFF7F2FF03BC9B
:1001D00000F0AEFE80F308887047000009488047B1
:1001E00009480047FEE7FEE7FEE7FEE7FEE7FEE719
:1001F000FEE7FEE7FEE7FEE704480549054A064B31
:1002000070470000710C00083101000880080020D0
:10021000800E0020800A0020800A00207047000025
:100220000FB4044910B503AA029800F0D3F810BC2B
:100230005DF814FB040000202DE9F0410E46044651
:10024000002020622046E168884730B3252805D089
:10025000D4E901219047206A401CF2E7E16820467A
:1002600000278847050018D0A5F14100192802D8B9
:1002700020354FF400673246294620462760FFF7B5
:1002800091FF40B1012804D0F61D26F0070608367C
:10029000D8E7361DD6E72846DAE7206ABDE8F081C0
:1002A0002DE9F0410646002410687529314616A54F
:1002B00010D0AFF30080002802DA404213A507E017
:1002C00031688A0701D512A502E0490704D511A5B6
:1002D000012401E0AFF3008000210A2206F1240787
:1002E00009E0B0FBF2FCB0FBF2F302FB1C00303083
:1002F00078541846491C0028F3D123462A46304634
:10030000BDE8F04100F00CB8000000002D00000036
:100310002B000000200000007047704770477047B6
:100320002DE9F0470D4699469246044600F124080F
:100330000168880604D5E06921F01001216000E021
:100340000120A84201DD471B00E00027A1697A19BE
:1003500002EB0900081AA0612078C00602D42046EA
:10036000AFF30080002608E0D4E901211AF8060066
:100370009047206A401C761C20624E45F4DB2078B2
:10038000C0060AD52046AFF3008006E0D4E901217B
:1003900030209047206A401C2062381EA7F10107D8
:1003A000F4DC07E0D4E9012118F805009047206A41
:1003B000401C2062281EA5F10105F3DC2046AFF3A6
:1003C00000802078000602D50220BDE8F0870120D9
:1003D000FBE70000074B70B50D467B4400F011F8B9
:1003E0000446284600F020F810B14FF0FF3070BDF1
:1003F000204670BDD70B000001694A1C02610878D5
:10040000704700B58FB0CDE9013100210591054954
:100410007944CDE9031011466846FFF70DFF0FB090
:1004200000BD0000E5FFFFFF007B00F0800070478B
:10043000754600F02BF8AE4605006946534620F09D
:100440000700854618B020B5FFF7D6FEBDE820406E
:100450004FF000064FF000074FF000084FF0000B80
:1004600021F00701AC46ACE8C009ACE8C009ACE833
:10047000C009ACE8C0098D46704710B50446AFF31B
:1004800000802046BDE81040FFF79EBE0048704740
:100490002008002000BFFEE77047000030B504468A
:1004A00004254FF4302000F06FF80546042D17D1D5
:1004B0000C48006940F002000A490861084644619E
:1004C000006940F0400008614FF4302000F05CF813
:1004D00005460448006941F6FD710840014908617C
:1004E000284630BD0020024004200B49C96801F0B5
:1004F000010109B101200EE00749C96801F00401BA
:1005000009B1022007E00449C96801F0100109B1EE
:10051000032000E0042070470020024003480069E7
:1005200040F080000149086170470000002002404F
:1005300070B504460D460426F00200F025F8064684
:10054000042E11D10948006940F0010007490861F3
:100550002580F00200F018F806460448006941F6CC
:10056000FE71084001490861304670BD002002401C
:1005700002480349486003484860704723016745C3
:1005800000200240AB89EFCD00B502460423FFF7FF
:10059000ABFF034603E0FFF7A7FF0346521E012B04
:1005A00001D1002AF7D102B90523184600BD2DE973
:1005B000F0410246002500260020002300240027E9
:1005C00091F803C00CF00F0591F803C00CF0100C6B
:1005D000BCF1000F03D091F802C04CEA050591F878
:1005E00000C0BCF1000F31D0146800202BE04FF0A8
:1005F000010C0CFA00F3B1F800C00CEA03069E42AD
:1006000020D183004FF00F0C0CFA03F7BC4305FA1E
:1006100003FC4CEA040491F803C0BCF1280F06D196
:100620004FF0010C0CFA00FCC2F814C00AE091F87B
:1006300003C0BCF1480F05D14FF0010C0CFA00FCCF
:10064000C2F810C0401C0828D1D31460B1F800C013
:10065000BCF1FF0F34DD546800202EE000F1080CDF
:100660004FF0010808FA0CF3B1F800C00CEA0306D9
:100670009E4221D183004FF00F0C0CFA03F7BC43CC
:1006800005FA03FC4CEA040491F803C0BCF1280FFE
:1006900005D100F1080C08FA0CF8C2F8148091F8A2
:1006A00003C0BCF1480F07D100F1080C4FF001085E
:1006B00008FA0CF8C2F81080401C0828CED3546009
:1006C000BDE8F0810246002093680B400BB1012089
:1006D00000E000207047416170470161704700BF32
:1006E000FEE7000070B50446206805490840B0F1F7
:1006F000005F04D165682068FFF76CFDA84770BDF6
:100700000000FE2F2DE9F05F06460F4690460024BC
:10071000B3463D46A1461BE068784FEA002A287898
:1007200040EA0A0AAD1C2046611C8CB20D4921F832
:1007300010A0B4F5806F07D100244FF480625846B2
:1007400000F090F90BF5006B09F102001FFA80F937
:10075000C145E1D324B122460249584600F082F94E
:10076000BDE8F09F00EC002008B50121042000F056
:10077000EBF80121402000F0E7F81820ADF8000068
:1007800048208DF8030069460648FFF710FF012056
:10079000ADF8000028208DF8030069460248FFF7F5
:1007A00006FF08BD001801400008014010B50024F4
:1007B0002948007800283AD001212848FFF782FF15
:1007C000012809D010212648FFF77CFF20B108211D
:1007D0002348FFF777FF10BB0A2000F0C9FB012177
:1007E0001E48FFF76FFF012809D010211C48FFF7B2
:1007F00069FF20B108211A48FFF764FF78B900208B
:100800001549087010211648FFF75CFF08B901244C
:100810000DE008211248FFF755FF08B9022406E051
:1008200001210E48FFF74EFF012800D103240121CA
:100830000A48FFF747FF68B910210948FFF742FF50
:10084000012807D108210648FFF73CFF012801D104
:1008500001490870204610BD1C000020000801401E
:100860000018014008B50121082000F06DF80121B1
:10087000402000F069F82020ADF8000010208DF82D
:10088000030003208DF8020069460948FFF78FFE38
:100890002020ADF8000069460648FFF788FE2021B9
:1008A0000348FFF71AFF20210248FFF716FF08BD93
:1008B000000C01400018014000BFFEE77047000037
:1008C00070B5002100230F22C47804B3154C2468AE
:1008D00004F4E064C4F5E064210AC1F10403CA40F1
:1008E000447804FA03F184781440214309010E4C42
:1008F0000678A155047804F01F050124AC40057862
:100900006D11AD0005F1E025C5F8004109E004785E
:1009100004F01F050124AC40044D0678761145F81B
:10092000264070BD0CED00E000E400E080E100E056
:1009300002490143024A1160704700000000FA05B5
:100940000CED00E07047000029B1064A92690243AD
:10095000044B9A6104E0034A92698243014B9A6115
:10096000704700000010024030B500210022002432
:1009700000232D4D6D6805F00C0121B1042905D02F
:10098000082923D105E0294D056022E0274D0560A7
:100990001FE0254D6D6805F47012234D6D6805F458
:1009A0008034022505EB92421CB9214D5543056068
:1009B0000BE01D4D6D6805F400351DB11C4D554310
:1009C000056002E0194D5543056002E0174D0560D2
:1009D00000BF00BF144D6D6805F0F0010909154D09
:1009E0006B5C0568DD4045600F4D6D6805F4E061A6
:1009F000090A104D6B5C4568DD4085600A4D6D68E5
:100A000005F46051C90A0B4D6B5C4568DD40C5605B
:100A1000054D6D6805F44041890B074D6B5CC56859
:100A2000B5FBF3F5056130BD0010024000127A00FD
:100A300000093D00080000201800002030B50346E2
:100A40000C461546002207E0184600F008F824F886
:100A500012009B1C501C82B2AA42F5DB30BD01463D
:100A6000088870472DE9F05F80468A461746B8F13E
:100A7000006F02D3B8F1205F01D3BDE8F09FFFF70C
:100A800077FDA8F1006B4FEADB25CBF34909C9F5E7
:100A90008064A74200DC3C464EE04FF0006101EB71
:100AA000C5204A142749FFF7C9FF00260BE009EBD0
:100AB0000600244931F810004FF6FF71884200D03B
:100AC00003E0701C86B2A642F1DB00BFA6421BDA2F
:100AD0004FF0006101EBC520FFF7E0FC002608E0C5
:100AE0003AF8160006EB0901164A22F81100701CAC
:100AF00086B2A642F4DB4FF0006101EBC5204A1438
:100B0000104900F021F804E022465146404600F02A
:100B10001BF8A74200D110E06D1C4FF000090AEB52
:100B2000440A08EB4408381B87B2B7F5806F02DD32
:100B30004FF4806400E03C46AFE700BFFFF7EEFCF7
:100B400000BF9AE7200000202DE9F04105460E463F
:100B50001746002407E036F814102846FFF7E8FC93
:100B6000AD1C601C84B2BC42F5DBBDE8F08170476F
:100B700010B500F001F810BD0CB5002001900090F8
:100B80003348006840F480303149086000BF304885
:100B9000006800F4003000900198401C019000981B
:100BA00018B90198B0F5A06FF1D12948006800F498
:100BB000003010B10120009001E00020009000986A
:100BC000012843D12348006840F010002149086003
:100BD0000846006820F0030008600846006840F0FE
:100BE000020008601A484068194948600846406891
:100BF00048600846406840F48060486008464068A5
:100C000020F47C1048600846406840F4E8104860D2
:100C10000846006840F08070086000BF0C4800681B
:100C200000F000700028F9D00948406820F0030067
:100C3000074948600846406840F00200486000BF2D
:100C40000348406800F00C000828F9D10CBD0000F2
:100C50000010024000200240704700204FF0E021C9
:100C600008610846006920F0040008617047000030
:100C700010B51348006840F00100114908600846AB
:100C80004068104908400E494860084600680E490F
:100C900008400B4908600846006820F4802008607E
:100CA0000846406820F4FE0048604FF41F0088604A
:100CB000FFF75EFF4FF000600449086010BD0000C0
:100CC000001002400000FFF8FFFFF6FE08ED00E014
:100CD00000201749098801F02001B9B11449091D04
:100CE0000988C8B213490988B1F55C4F08DA12497E
:100CF000104A128888540F490988491C0D4A1180EE
:100D00000B49098821F02001094A11800849098806
:100D100001F0100151B10121084A118004490988EC
:100D200021F01001024A1180111D0988704700004E
:100D300000380140020000200010002000000020C8
:100D400010B586B00446012144F20400FFF7FCFD13
:100D50004FF40070ADF8140018208DF81700032030
:100D60008DF8160005A92048FFF721FC4FF480609C
:100D7000ADF8140004208DF8170003208DF816003C
:100D800005A91948FFF713FC01940020ADF80800ED
:100D9000ADF80A00ADF80C00ADF810000C20ADF86D
:100DA0000E0001A9114800F055F8012240F225512A
:100DB0000E4800F029F8012240F224410B4800F0CF
:100DC00023F825208DF8000001208DF801008DF812
:100DD00002008DF803006846FFF772FD0121034809
:100DE00000F006F806B010BD0008014000380140D0
:100DF00021B1828942F40052828104E082894DF659
:100E0000FF731A4082817047F0B503460024002624
:100E10000025002040F66A17B94200D100BF1846ED
:100E2000C1F3421401F01F06012707FA06F5012C51
:100E300001D10C3004E0022C01D1103000E014305C
:100E40001AB107682F43076002E00768AF430760E5
:100E5000F0BD00002DE9F04786B005460E4600249F
:100E6000A24600BFA1460027B08900B100BF2F46AF
:100E70002C8A4CF6FF700440F08804432C82AC8925
:100E80004EF6F3100440B088318908437189084355
:100E90000443AC81AC8A4FF6FF400440B089044360
:100EA000AC8201A8FFF760FD1F48874202D1DDF840
:100EB00010A001E0DDF80CA0A88900F4004040B1CA
:100EC0000AEBCA0000EB0A1031684900B0FBF1F8E8
:100ED00007E00AEBCA0000EB0A1031688900B0FB9A
:100EE000F1F86420B8FBF0F004012009642101FB53
:100EF0001089A88900F4004040B1322000EBC900FD
:100F0000B0FBF1F000F00700044308E0322000EBF2
:100F100009106421B0FBF1F000F00F0004432C81B4
:100F200006B0BDE8F08700000038014000BFFEE7D2
:100F300000BF7047FF214FF0E022916142F228315B
:100F4000414351611146096941F00101116100BF3E
:100F50004FF0E021096901F480310029F8D04FF009
:100F6000E021096921F001014FF0E0221161704791
:100F700030B503460025B3F5E96F03DC1846FFF7EB
:100F8000D9FF15E004E0A3F5E96083B2681C85B2DF
:100F9000B3F5E96FF7DA002405E04FF4E960FFF7F5
:100FA000C9FF601C84B2AC42F7DB1846FFF7C2FFF2
:100FB00030BD000000BF054A128802F04002002A3E
:100FC000F9D0C2B2014B1B1D1A8070470038014096
:100FD000002400254FF4A060FFF7AAFCFFF73DFEB8
:100FE0004FF4E130FFF7ACFEFFF73CFCFFF7BCFB32
:100FF00020213648FFF76FFB20213548FFF76BFBB8
:1010000034A0FFF70DF95FE038480088002816D0BB
:10101000374805880020364908803449088035A0C3
:10102000FFF7FEF8294638A0FFF7FAF83BA0FFF7D4
:10103000F7F842A0FFF7F4F848A0FFF7F1F80A200C
:10104000FFF796FFFFF7B2FB0446032C16D195B1CC
:101050004A48406800F07F40B0F1006F0ED148A0D0
:10106000FFF7DEF82A4645494A48FFF74BFB4AA0FE
:10107000FFF7D6F802E04CA0FFF7D2F8022C10D10F
:101080004448406800F07F40B0F1006F06D14CA0AA
:10109000FFF7C6F83F48FFF725FB02E04FA0FFF738
:1010A000BFF8012C10D15448406800F07F40B0F1E7
:1010B000005F06D151A0FFF7B3F84F48FFF712FBCE
:1010C00002E055A0FFF7ACF89EE70000000C0140DD
:1010D00000180140BDF8C8EB426F6F746C6F61641B
:1010E0006572B3CCD0F20D0A0000000000000020B1
:1010F00002000020D3C3BBA7B3CCD0F2BDD3CAD566
:10110000CDEAB3C9210D0A00B4FAC2EBB3A4B6C844
:101110003A256442797465730D0A0000B0B4CFC2F9
:101120004B45595F5550D6B4D0D0464C415348B882
:10113000FCD0C2B9CCBCFE0D0A000000B0B4CFC2D6
:101140004B455931D6B4D0D0464C415348C0EFB589
:10115000C4D0C2B3CCD0F20D0A000000B0B4CFC2EC
:101160004B455932D6B4D0D05352414DC0EFB5C4DF
:10117000D0C2B3CCD0F20D0A000000000010002055
:10118000BFAACABCB8FCD0C2B9CCBCFE2E2E2E0D54
:101190000A00000000000108B9CCBCFEB8FCD0C2B7
:1011A000CDEAB3C9210D0A00C3BBD3D0BFC9D2D485
:1011B000B8FCD0C2B5C4B9CCBCFE210D0A000000F9
:1011C000BFAACABCD6B4D0D0464C415348D3C3BB47
:1011D000A7B4FAC2EB21210D0A000000B7C7464CA4
:1011E000415348D3A6D3C3B3CCD0F22CCEDEB7A89C
:1011F000D6B4D0D0210D0A0000100020BFAACABC6E
:10120000D6B4D0D05352414DD3C3BBA7B4FAC2EB2E
:1012100021210D0A00000000B7C75352414DD3A64B
:10122000D3C3B3CCD0F22CCEDEB7A8D6B4D0D02165
:101230000D0A0000541200080000002020000000E9
:101240006C0100087412000820000020E0F3000088
:1012500088010008000000000000000000000000FD
:101260000102030401020304060708090204060838
:041270000100000079
:0400000508000131BD
:00000001FF
